:020000020000FC
:1000000029C0000018950000189500001895000000
:10001000189500001895000018950000189500002C
:10002000189500001895000027C0000018950000E2
:10003000189500001895000018950000189500000C
:1000400018950000189500001895000018950000FC
:100050001895000008E00EBF0FE50DBF22270FEF37
:1000600004BB01E005BB40E002E003BF02E009BFC2
:100070000AE80CBF7894FFCF16B31370203041F418
:10008000123009F42ED0113009F420D0212F189508
:10009000213041F4103009F424D0133009F416D083
:1000A000212F1895223041F4133009F41AD0103062
:1000B00069F70CD0212F1895233039F4113009F449
:1000C00010D0123009F402D0212F1895443039F4A1
:1000D000442705B3003821F0000F05BB01F4439518
:1000E0000895443039F4442705B3013021F00695D2
:0800F00005BB01F443950895DE
:00000001FF
