:0C0000000EC0FECF46C0A8C0FBCFFACF58
:10000C00A6C0A6C0F7CFF6CF010001007100140006
:10001C000000F894EE27ECBBE5BFF8E1A4B7A77F8E
:10002C00A4BFF1BDE1BD8DE0A2E0ED938A95E9F7A7
:10003C0080E4A0E6ED938A95E9F7E6E1F0E0C89557
:10004C003196802DC8953196902D0097B9F0C895B2
:10005C003196A02DC8953196B02DC8953196102C9F
:10006C00C89531966E2F7F2FF02DE12DC8953196C6
:10007C000D920197D9F7E62FF72FE1CFEFE9EDBFFE
:10008C00C0E7D0E066C0AA93EA93EFB7EA93E0E04A
:10009C00B299E1E0AE2FE0E020FCE1E0EA1721F0BC
:1000AC00E894B299689420F8E894B399689421F88C
:1000BC00E894B499689422F8E0E0E6B973D0EE0FB6
:1000CC0075D0EA2BE6B9E0E0E7B975D0EE0F77D042
:1000DC00EA2BE7B9E0E024FCE1E071D0EA1729F45F
:1000EC0061D0AE2F68D0EA1741F122FC12C021FE7C
:1000FC0010C061D0AE2F56D0EA1759F065D0EA1770
:10010C0041F4E0917200EF5FE0937200E1E0E09364
:10011C00710022FE12C021FC10C04DD0AE2F42D077
:10012C00EA1759F451D0EA1741F0E0917200E1500E
:10013C00E0937200E0E0E093710021FA23F822FAD8
:10014C0024F8E991EFBFE991A991189518951895A4
:10015C001895E0E8E6BDE0E0E6BDE8BBE3E0E7BB10
:10016C00E1EBEFBDE1E0E3BFE0E0E2BFE0E8E6BFDA
:10017C00E9BDE0E2EBBFE0E0E5BFECE1E5BBE0E2CE
:10018C00EABFEEE0E9BFE0E8E8B9E0E0E3B9E89403
:10019C00B399689423F8E894B499689424F8789403
:1001AC00FFCFFFCFE0E023FCE1E00895AE2FE0E0CD
:1001BC0024FCE1E00895E0E021FCE1E00895AE2F9D
:1001CC00E0E022FCE1E00895E0E022FCE1E0EECF8B
:00000001FF
